{
  "_format": "hh-sol-artifact-1",
  "contractName": "Arbitrage",
  "sourceName": "contracts/Arbitrage.sol",
  "abi": [
    {
      "inputs": [
        {
          "internalType": "address",
          "name": "_sRouter",
          "type": "address"
        },
        {
          "internalType": "address",
          "name": "_uRouter",
          "type": "address"
        },
        {
          "internalType": "address",
          "name": "_vault",
          "type": "address"
        }
      ],
      "stateMutability": "nonpayable",
      "type": "constructor"
    },
    {
      "anonymous": false,
      "inputs": [
        {
          "indexed": false,
          "internalType": "address",
          "name": "token",
          "type": "address"
        },
        {
          "indexed": false,
          "internalType": "address",
          "name": "spender",
          "type": "address"
        },
        {
          "indexed": false,
          "internalType": "uint256",
          "name": "amount",
          "type": "uint256"
        }
      ],
      "name": "ApprovalSuccess",
      "type": "event"
    },
    {
      "anonymous": false,
      "inputs": [
        {
          "indexed": false,
          "internalType": "address",
          "name": "token",
          "type": "address"
        },
        {
          "indexed": false,
          "internalType": "uint256",
          "name": "amount",
          "type": "uint256"
        }
      ],
      "name": "FlashLoanExecuted",
      "type": "event"
    },
    {
      "anonymous": false,
      "inputs": [
        {
          "indexed": false,
          "internalType": "address",
          "name": "token",
          "type": "address"
        },
        {
          "indexed": false,
          "internalType": "uint256",
          "name": "amount",
          "type": "uint256"
        }
      ],
      "name": "FlashLoanRepayment",
      "type": "event"
    },
    {
      "anonymous": false,
      "inputs": [
        {
          "indexed": false,
          "internalType": "address",
          "name": "token",
          "type": "address"
        },
        {
          "indexed": false,
          "internalType": "uint256",
          "name": "totalRepaymentAmount",
          "type": "uint256"
        },
        {
          "indexed": false,
          "internalType": "uint256",
          "name": "finalBalance",
          "type": "uint256"
        }
      ],
      "name": "FlashLoanStepCompleted",
      "type": "event"
    },
    {
      "anonymous": false,
      "inputs": [
        {
          "indexed": false,
          "internalType": "string",
          "name": "message",
          "type": "string"
        }
      ],
      "name": "LogError",
      "type": "event"
    },
    {
      "anonymous": false,
      "inputs": [
        {
          "indexed": false,
          "internalType": "address",
          "name": "account",
          "type": "address"
        }
      ],
      "name": "Paused",
      "type": "event"
    },
    {
      "anonymous": false,
      "inputs": [
        {
          "indexed": false,
          "internalType": "uint256",
          "name": "amount",
          "type": "uint256"
        }
      ],
      "name": "Profit",
      "type": "event"
    },
    {
      "anonymous": false,
      "inputs": [
        {
          "indexed": false,
          "internalType": "address",
          "name": "fromToken",
          "type": "address"
        },
        {
          "indexed": false,
          "internalType": "address",
          "name": "toToken",
          "type": "address"
        },
        {
          "indexed": false,
          "internalType": "uint256",
          "name": "amountIn",
          "type": "uint256"
        },
        {
          "indexed": false,
          "internalType": "uint256",
          "name": "amountOut",
          "type": "uint256"
        }
      ],
      "name": "SwapExecuted",
      "type": "event"
    },
    {
      "anonymous": false,
      "inputs": [
        {
          "indexed": true,
          "internalType": "address",
          "name": "token",
          "type": "address"
        },
        {
          "indexed": false,
          "internalType": "uint256",
          "name": "balance",
          "type": "uint256"
        }
      ],
      "name": "TokenBalance",
      "type": "event"
    },
    {
      "anonymous": false,
      "inputs": [
        {
          "indexed": false,
          "internalType": "address",
          "name": "account",
          "type": "address"
        }
      ],
      "name": "Unpaused",
      "type": "event"
    },
    {
      "inputs": [],
      "name": "MAX_FLASH_LOAN_EXECUTIONS",
      "outputs": [
        {
          "internalType": "uint256",
          "name": "",
          "type": "uint256"
        }
      ],
      "stateMutability": "view",
      "type": "function"
    },
    {
      "inputs": [
        {
          "internalType": "address",
          "name": "_address",
          "type": "address"
        }
      ],
      "name": "addToWhitelist",
      "outputs": [],
      "stateMutability": "nonpayable",
      "type": "function"
    },
    {
      "inputs": [
        {
          "internalType": "bool",
          "name": "_startOnUniswap",
          "type": "bool"
        },
        {
          "internalType": "address",
          "name": "_token0",
          "type": "address"
        },
        {
          "internalType": "address",
          "name": "_token1",
          "type": "address"
        },
        {
          "internalType": "address",
          "name": "_token2",
          "type": "address"
        },
        {
          "internalType": "uint256",
          "name": "_flashAmount",
          "type": "uint256"
        },
        {
          "internalType": "uint256",
          "name": "_minProfit",
          "type": "uint256"
        },
        {
          "internalType": "uint256",
          "name": "_slippageBps",
          "type": "uint256"
        }
      ],
      "name": "executeTrade",
      "outputs": [],
      "stateMutability": "nonpayable",
      "type": "function"
    },
    {
      "inputs": [],
      "name": "flashLoanExecutionCount",
      "outputs": [
        {
          "internalType": "uint256",
          "name": "",
          "type": "uint256"
        }
      ],
      "stateMutability": "view",
      "type": "function"
    },
    {
      "inputs": [],
      "name": "owner",
      "outputs": [
        {
          "internalType": "address",
          "name": "",
          "type": "address"
        }
      ],
      "stateMutability": "view",
      "type": "function"
    },
    {
      "inputs": [],
      "name": "pause",
      "outputs": [],
      "stateMutability": "nonpayable",
      "type": "function"
    },
    {
      "inputs": [],
      "name": "paused",
      "outputs": [
        {
          "internalType": "bool",
          "name": "",
          "type": "bool"
        }
      ],
      "stateMutability": "view",
      "type": "function"
    },
    {
      "inputs": [
        {
          "internalType": "contract IERC20[]",
          "name": "tokens",
          "type": "address[]"
        },
        {
          "internalType": "uint256[]",
          "name": "amounts",
          "type": "uint256[]"
        },
        {
          "internalType": "uint256[]",
          "name": "feeAmounts",
          "type": "uint256[]"
        },
        {
          "internalType": "bytes",
          "name": "userData",
          "type": "bytes"
        }
      ],
      "name": "receiveFlashLoan",
      "outputs": [],
      "stateMutability": "nonpayable",
      "type": "function"
    },
    {
      "inputs": [
        {
          "internalType": "address",
          "name": "_address",
          "type": "address"
        }
      ],
      "name": "removeFromWhitelist",
      "outputs": [],
      "stateMutability": "nonpayable",
      "type": "function"
    },
    {
      "inputs": [],
      "name": "sRouter",
      "outputs": [
        {
          "internalType": "contract IUniswapV2Router02",
          "name": "",
          "type": "address"
        }
      ],
      "stateMutability": "view",
      "type": "function"
    },
    {
      "inputs": [
        {
          "internalType": "address",
          "name": "_vault",
          "type": "address"
        }
      ],
      "name": "setVault",
      "outputs": [],
      "stateMutability": "nonpayable",
      "type": "function"
    },
    {
      "inputs": [],
      "name": "uRouter",
      "outputs": [
        {
          "internalType": "contract IUniswapV2Router02",
          "name": "",
          "type": "address"
        }
      ],
      "stateMutability": "view",
      "type": "function"
    },
    {
      "inputs": [],
      "name": "unpause",
      "outputs": [],
      "stateMutability": "nonpayable",
      "type": "function"
    },
    {
      "inputs": [],
      "name": "vault",
      "outputs": [
        {
          "internalType": "contract IVault",
          "name": "",
          "type": "address"
        }
      ],
      "stateMutability": "view",
      "type": "function"
    },
    {
      "inputs": [
        {
          "internalType": "address",
          "name": "",
          "type": "address"
        }
      ],
      "name": "whitelistedAddresses",
      "outputs": [
        {
          "internalType": "bool",
          "name": "",
          "type": "bool"
        }
      ],
      "stateMutability": "view",
      "type": "function"
    }
  ],
  "bytecode": "0x60c06040523480156200001157600080fd5b5060405162003d3938038062003d39833981810160405281019062000037919062000246565b60016000819055506000600160006101000a81548160ff0219169083151502179055508273ffffffffffffffffffffffffffffffffffffffff1660808173ffffffffffffffffffffffffffffffffffffffff16815250508173ffffffffffffffffffffffffffffffffffffffff1660a08173ffffffffffffffffffffffffffffffffffffffff1681525050600073ffffffffffffffffffffffffffffffffffffffff168173ffffffffffffffffffffffffffffffffffffffff1603620001515773ba12222222228d8ba445958a75a0704d566bf2c86001806101000a81548173ffffffffffffffffffffffffffffffffffffffff021916908373ffffffffffffffffffffffffffffffffffffffff16021790555062000192565b806001806101000a81548173ffffffffffffffffffffffffffffffffffffffff021916908373ffffffffffffffffffffffffffffffffffffffff1602179055505b33600260006101000a81548173ffffffffffffffffffffffffffffffffffffffff021916908373ffffffffffffffffffffffffffffffffffffffff160217905550505050620002a2565b600080fd5b600073ffffffffffffffffffffffffffffffffffffffff82169050919050565b60006200020e82620001e1565b9050919050565b620002208162000201565b81146200022c57600080fd5b50565b600081519050620002408162000215565b92915050565b600080600060608486031215620002625762000261620001dc565b5b600062000272868287016200022f565b935050602062000285868287016200022f565b925050604062000298868287016200022f565b9150509250925092565b60805160a051613a39620003006000396000818161039901528181610f1d015281816116940152818161200301526120fc01526000818161029e01528181610ef7015281816116ba01528181611de40152611ed80152613a396000f3fe608060405234801561001057600080fd5b50600436106100f55760003560e01c80636c80d01b11610097578063bf7000d611610066578063bf7000d614610228578063e43252d714610246578063f04f270714610262578063fbfa77cf1461027e576100f5565b80636c80d01b146101c85780638456cb59146101e45780638ab1d681146101ee5780638da5cb5b1461020a576100f5565b8063499e500e116100d3578063499e500e146101525780635c975abb146101705780635cf390491461018e5780636817031b146101ac576100f5565b8063017c64b0146100fa57806306c933d8146101185780633f4ba83a14610148575b600080fd5b61010261029c565b60405161010f9190612446565b60405180910390f35b610132600480360381019061012d91906124b3565b6102c0565b60405161013f91906124fb565b60405180910390f35b6101506102e0565b005b61015a61037a565b604051610167919061252f565b60405180910390f35b610178610380565b60405161018591906124fb565b60405180910390f35b610196610397565b6040516101a39190612446565b60405180910390f35b6101c660048036038101906101c191906124b3565b6103bb565b005b6101e260048036038101906101dd91906125a2565b6104fd565b005b6101ec61083a565b005b610208600480360381019061020391906124b3565b6108d4565b005b6102126109bf565b60405161021f9190612653565b60405180910390f35b6102306109e5565b60405161023d919061252f565b60405180910390f35b610260600480360381019061025b91906124b3565b6109ea565b005b61027c6004803603810190610277919061297d565b610ad5565b005b610286611ac1565b6040516102939190612a75565b60405180910390f35b7f000000000000000000000000000000000000000000000000000000000000000081565b60046020528060005260406000206000915054906101000a900460ff1681565b600260009054906101000a900473ffffffffffffffffffffffffffffffffffffffff1673ffffffffffffffffffffffffffffffffffffffff163373ffffffffffffffffffffffffffffffffffffffff1614610370576040517f08c379a000000000000000000000000000000000000000000000000000000000815260040161036790612aed565b60405180910390fd5b610378611ae5565b565b60035481565b6000600160009054906101000a900460ff16905090565b7f000000000000000000000000000000000000000000000000000000000000000081565b600260009054906101000a900473ffffffffffffffffffffffffffffffffffffffff1673ffffffffffffffffffffffffffffffffffffffff163373ffffffffffffffffffffffffffffffffffffffff161461044b576040517f08c379a000000000000000000000000000000000000000000000000000000000815260040161044290612aed565b60405180910390fd5b600073ffffffffffffffffffffffffffffffffffffffff168173ffffffffffffffffffffffffffffffffffffffff16036104ba576040517f08c379a00000000000000000000000000000000000000000000000000000000081526004016104b190612b59565b60405180910390fd5b806001806101000a81548173ffffffffffffffffffffffffffffffffffffffff021916908373ffffffffffffffffffffffffffffffffffffffff16021790555050565b610505611b48565b600260009054906101000a900473ffffffffffffffffffffffffffffffffffffffff1673ffffffffffffffffffffffffffffffffffffffff163373ffffffffffffffffffffffffffffffffffffffff1614806105aa5750600460003373ffffffffffffffffffffffffffffffffffffffff1673ffffffffffffffffffffffffffffffffffffffff16815260200190815260200160002060009054906101000a900460ff165b6105e9576040517f08c379a00000000000000000000000000000000000000000000000000000000081526004016105e090612aed565b60405180910390fd5b6105f1611b97565b7fc35a0ec6603ff0b5966d7ca053a5f0984a70aad58a9a0ecb1349308815a4151a60405161061e90612bc5565b60405180910390a1600087878787868660405160200161064396959493929190612be5565b60405160208183030381529060405290506000600167ffffffffffffffff81111561067157610670612684565b5b60405190808252806020026020018201604052801561069f5781602001602082028036833780820191505090505b50905087816000815181106106b7576106b6612c46565b5b602002602001019073ffffffffffffffffffffffffffffffffffffffff16908173ffffffffffffffffffffffffffffffffffffffff16815250506000600167ffffffffffffffff81111561070e5761070d612684565b5b60405190808252806020026020018201604052801561073c5781602001602082028036833780820191505090505b509050858160008151811061075457610753612c46565b5b60200260200101818152505060018054906101000a900473ffffffffffffffffffffffffffffffffffffffff1673ffffffffffffffffffffffffffffffffffffffff16635c38449e308484876040518563ffffffff1660e01b81526004016107bf9493929190612ea3565b600060405180830381600087803b1580156107d957600080fd5b505af11580156107ed573d6000803e3d6000fd5b505050507fc35a0ec6603ff0b5966d7ca053a5f0984a70aad58a9a0ecb1349308815a4151a60405161081e90612f49565b60405180910390a1505050610831611be1565b50505050505050565b600260009054906101000a900473ffffffffffffffffffffffffffffffffffffffff1673ffffffffffffffffffffffffffffffffffffffff163373ffffffffffffffffffffffffffffffffffffffff16146108ca576040517f08c379a00000000000000000000000000000000000000000000000000000000081526004016108c190612aed565b60405180910390fd5b6108d2611beb565b565b600260009054906101000a900473ffffffffffffffffffffffffffffffffffffffff1673ffffffffffffffffffffffffffffffffffffffff163373ffffffffffffffffffffffffffffffffffffffff1614610964576040517f08c379a000000000000000000000000000000000000000000000000000000000815260040161095b90612aed565b60405180910390fd5b6000600460008373ffffffffffffffffffffffffffffffffffffffff1673ffffffffffffffffffffffffffffffffffffffff16815260200190815260200160002060006101000a81548160ff02191690831515021790555050565b600260009054906101000a900473ffffffffffffffffffffffffffffffffffffffff1681565b600181565b600260009054906101000a900473ffffffffffffffffffffffffffffffffffffffff1673ffffffffffffffffffffffffffffffffffffffff163373ffffffffffffffffffffffffffffffffffffffff1614610a7a576040517f08c379a0000000000000000000000000000000000000000000000000000000008152600401610a7190612aed565b60405180910390fd5b6001600460008373ffffffffffffffffffffffffffffffffffffffff1673ffffffffffffffffffffffffffffffffffffffff16815260200190815260200160002060006101000a81548160ff02191690831515021790555050565b60018054906101000a900473ffffffffffffffffffffffffffffffffffffffff1673ffffffffffffffffffffffffffffffffffffffff163373ffffffffffffffffffffffffffffffffffffffff1614610b63576040517f08c379a0000000000000000000000000000000000000000000000000000000008152600401610b5a90612fb5565b60405180910390fd5b600160035410610ba8576040517f08c379a0000000000000000000000000000000000000000000000000000000008152600401610b9f90613047565b60405180910390fd5b60036000815480929190610bbb90613096565b919050555060008060008060008086806020019051810190610bdd9190613146565b955095509550955095509550600089600081518110610bff57610bfe612c46565b5b60200260200101519050600089600081518110610c1f57610c1e612c46565b5b6020026020010151905060008183610c3791906131d3565b90507f601a662d311cd4ce5f0345feba42cb1b573094143c46c6f5bb901d6e8578a23a8884604051610c6a929190613207565b60405180910390a16060600073ffffffffffffffffffffffffffffffffffffffff168773ffffffffffffffffffffffffffffffffffffffff1603610d9757600267ffffffffffffffff811115610cc357610cc2612684565b5b604051908082528060200260200182016040528015610cf15781602001602082028036833780820191505090505b5090508881600081518110610d0957610d08612c46565b5b602002602001019073ffffffffffffffffffffffffffffffffffffffff16908173ffffffffffffffffffffffffffffffffffffffff16815250508781600181518110610d5857610d57612c46565b5b602002602001019073ffffffffffffffffffffffffffffffffffffffff16908173ffffffffffffffffffffffffffffffffffffffff1681525050610ed1565b600367ffffffffffffffff811115610db257610db1612684565b5b604051908082528060200260200182016040528015610de05781602001602082028036833780820191505090505b5090508881600081518110610df857610df7612c46565b5b602002602001019073ffffffffffffffffffffffffffffffffffffffff16908173ffffffffffffffffffffffffffffffffffffffff16815250508781600181518110610e4757610e46612c46565b5b602002602001019073ffffffffffffffffffffffffffffffffffffffff16908173ffffffffffffffffffffffffffffffffffffffff16815250508681600281518110610e9657610e95612c46565b5b602002602001019073ffffffffffffffffffffffffffffffffffffffff16908173ffffffffffffffffffffffffffffffffffffffff16815250505b610f6381600081518110610ee857610ee7612c46565b5b60200260200101518b610f1b577f0000000000000000000000000000000000000000000000000000000000000000610f3d565b7f00000000000000000000000000000000000000000000000000000000000000005b7fffffffffffffffffffffffffffffffffffffffffffffffffffffffffffffffff611c4d565b80600081518110610f7757610f76612c46565b5b602002602001015173ffffffffffffffffffffffffffffffffffffffff167fc7ca56f7f6b4a75d419d4615040fb79e644dabac50749c57b2ae1d1d5204d90682600081518110610fca57610fc9612c46565b5b602002602001015173ffffffffffffffffffffffffffffffffffffffff166370a08231306040518263ffffffff1660e01b815260040161100a9190612653565b602060405180830381865afa158015611027573d6000803e3d6000fd5b505050506040513d601f19601f8201168201806040525081019061104b9190613230565b604051611058919061252f565b60405180910390a260008a61107757611072828688611ddd565b611083565b611082828688611ffc565b5b90508973ffffffffffffffffffffffffffffffffffffffff167fc7ca56f7f6b4a75d419d4615040fb79e644dabac50749c57b2ae1d1d5204d9068b73ffffffffffffffffffffffffffffffffffffffff166370a08231306040518263ffffffff1660e01b81526004016110f69190612653565b602060405180830381865afa158015611113573d6000803e3d6000fd5b505050506040513d601f19601f820116820180604052508101906111379190613230565b604051611144919061252f565b60405180910390a2600073ffffffffffffffffffffffffffffffffffffffff168873ffffffffffffffffffffffffffffffffffffffff1614611248578773ffffffffffffffffffffffffffffffffffffffff167fc7ca56f7f6b4a75d419d4615040fb79e644dabac50749c57b2ae1d1d5204d9068973ffffffffffffffffffffffffffffffffffffffff166370a08231306040518263ffffffff1660e01b81526004016111f19190612653565b602060405180830381865afa15801561120e573d6000803e3d6000fd5b505050506040513d601f19601f820116820180604052508101906112329190613230565b60405161123f919061252f565b60405180910390a25b7fdd36740e2a012d93061a0d99eaa9107860955de4e90027d3cf465a055026c4078260008151811061127d5761127c612c46565b5b60200260200101518360018551611294919061325d565b815181106112a5576112a4612c46565b5b602002602001015187846040516112bf9493929190613291565b60405180910390a16060600073ffffffffffffffffffffffffffffffffffffffff168973ffffffffffffffffffffffffffffffffffffffff16036113ec57600267ffffffffffffffff81111561131857611317612684565b5b6040519080825280602002602001820160405280156113465781602001602082028036833780820191505090505b509050898160008151811061135e5761135d612c46565b5b602002602001019073ffffffffffffffffffffffffffffffffffffffff16908173ffffffffffffffffffffffffffffffffffffffff16815250508a816001815181106113ad576113ac612c46565b5b602002602001019073ffffffffffffffffffffffffffffffffffffffff16908173ffffffffffffffffffffffffffffffffffffffff1681525050611526565b600367ffffffffffffffff81111561140757611406612684565b5b6040519080825280602002602001820160405280156114355781602001602082028036833780820191505090505b509050888160008151811061144d5761144c612c46565b5b602002602001019073ffffffffffffffffffffffffffffffffffffffff16908173ffffffffffffffffffffffffffffffffffffffff1681525050898160018151811061149c5761149b612c46565b5b602002602001019073ffffffffffffffffffffffffffffffffffffffff16908173ffffffffffffffffffffffffffffffffffffffff16815250508a816002815181106114eb576114ea612c46565b5b602002602001019073ffffffffffffffffffffffffffffffffffffffff16908173ffffffffffffffffffffffffffffffffffffffff16815250505b60008073ffffffffffffffffffffffffffffffffffffffff168a73ffffffffffffffffffffffffffffffffffffffff16146115da578973ffffffffffffffffffffffffffffffffffffffff166370a08231306040518263ffffffff1660e01b81526004016115949190612653565b602060405180830381865afa1580156115b1573d6000803e3d6000fd5b505050506040513d601f19601f820116820180604052508101906115d59190613230565b611655565b8a73ffffffffffffffffffffffffffffffffffffffff166370a08231306040518263ffffffff1660e01b81526004016116139190612653565b602060405180830381865afa158015611630573d6000803e3d6000fd5b505050506040513d601f19601f820116820180604052508101906116549190613230565b5b905060005b60018351611668919061325d565b81101561180e5761170083828151811061168557611684612c46565b5b60200260200101518f6116b8577f00000000000000000000000000000000000000000000000000000000000000006116da565b7f00000000000000000000000000000000000000000000000000000000000000005b7fffffffffffffffffffffffffffffffffffffffffffffffffffffffffffffffff611c4d565b82818151811061171357611712612c46565b5b602002602001015173ffffffffffffffffffffffffffffffffffffffff167fc7ca56f7f6b4a75d419d4615040fb79e644dabac50749c57b2ae1d1d5204d90684838151811061176557611764612c46565b5b602002602001015173ffffffffffffffffffffffffffffffffffffffff166370a08231306040518263ffffffff1660e01b81526004016117a59190612653565b602060405180830381865afa1580156117c2573d6000803e3d6000fd5b505050506040513d601f19601f820116820180604052508101906117e69190613230565b6040516117f3919061252f565b60405180910390a2808061180690613096565b91505061165a565b5060008d6118265761182183838b611ffc565b611832565b61183183838b611ddd565b5b905060008d73ffffffffffffffffffffffffffffffffffffffff166370a08231306040518263ffffffff1660e01b815260040161186f9190612653565b602060405180830381865afa15801561188c573d6000803e3d6000fd5b505050506040513d601f19601f820116820180604052508101906118b09190613230565b90508d73ffffffffffffffffffffffffffffffffffffffff167fc7ca56f7f6b4a75d419d4615040fb79e644dabac50749c57b2ae1d1d5204d906826040516118f8919061252f565b60405180910390a27f2d2f9439e90516f983124248328069680809f5d1cabe751ce5c28b588a478f888e8883604051611933939291906132d6565b60405180910390a18681101561197e576040517f08c379a000000000000000000000000000000000000000000000000000000000815260040161197590613359565b60405180910390fd5b6000878261198c919061325d565b90508b8110156119d1576040517f08c379a00000000000000000000000000000000000000000000000000000000081526004016119c8906133eb565b60405180910390fd5b6119fc8f60018054906101000a900473ffffffffffffffffffffffffffffffffffffffff168a612221565b6000811115611a3357611a328f600260009054906101000a900473ffffffffffffffffffffffffffffffffffffffff1683612221565b5b7f6e3358371d8261f08f1ab194e3106f1f8e419dee64c3f9267f3a2944371aeb9c8f89604051611a64929190613207565b60405180910390a17f357d905f1831209797df4d55d79c5c5bf1d9f7311c976afd05e13d881eab9bc881604051611a9b919061252f565b60405180910390a160006003819055505050505050505050505050505050505050505050565b60018054906101000a900473ffffffffffffffffffffffffffffffffffffffff1681565b611aed612376565b6000600160006101000a81548160ff0219169083151502179055507f5db9ee0a495bf2e6ff9c91a7834c1ba4fdd244a5e8aa4e537bd38aeae4b073aa611b316123bf565b604051611b3e9190612653565b60405180910390a1565b600260005403611b8d576040517f08c379a0000000000000000000000000000000000000000000000000000000008152600401611b8490613457565b60405180910390fd5b6002600081905550565b611b9f610380565b15611bdf576040517f08c379a0000000000000000000000000000000000000000000000000000000008152600401611bd6906134c3565b60405180910390fd5b565b6001600081905550565b611bf3611b97565b60018060006101000a81548160ff0219169083151502179055507f62e78cea01bee320cd4e420270b5ea74000d11b0c9f74754ebdbfc544b05a258611c366123bf565b604051611c439190612653565b60405180910390a1565b6000808473ffffffffffffffffffffffffffffffffffffffff1663095ea7b360e01b8585604051602401611c82929190613207565b604051602081830303815290604052907bffffffffffffffffffffffffffffffffffffffffffffffffffffffff19166020820180517bffffffffffffffffffffffffffffffffffffffffffffffffffffffff8381831617835250505050604051611cec919061351f565b6000604051808303816000865af19150503d8060008114611d29576040519150601f19603f3d011682016040523d82523d6000602084013e611d2e565b606091505b5091509150818015611d5c5750600081511480611d5b575080806020019051810190611d5a9190613536565b5b5b611d9b576040517f08c379a0000000000000000000000000000000000000000000000000000000008152600401611d92906135af565b60405180910390fd5b7ff3d52c7cc5695b8378b286d8da225d87427a90a9553604ad56d9c3c3bd36367a858585604051611dce939291906135cf565b60405180910390a15050505050565b60008060007f000000000000000000000000000000000000000000000000000000000000000073ffffffffffffffffffffffffffffffffffffffff1663d06ca61f86886040518363ffffffff1660e01b8152600401611e3d9291906136b3565b600060405180830381865afa158015611e5a573d6000803e3d6000fd5b505050506040513d6000823e3d601f19601f82011682018060405250810190611e83919061377a565b9050600061271085612710611e98919061325d565b8360018551611ea7919061325d565b81518110611eb857611eb7612c46565b5b6020026020010151611eca91906137c3565b611ed49190613834565b90507f000000000000000000000000000000000000000000000000000000000000000073ffffffffffffffffffffffffffffffffffffffff166338ed173987838a306104b042611f2491906131d3565b6040518663ffffffff1660e01b8152600401611f44959493929190613865565b6000604051808303816000875af1925050508015611f8557506040513d6000823e3d601f19601f82011682018060405250810190611f82919061377a565b60015b611fc4576040517f08c379a0000000000000000000000000000000000000000000000000000000008152600401611fbb9061390b565b60405180910390fd5b8060018251611fd3919061325d565b81518110611fe457611fe3612c46565b5b60200260200101519350508293505050509392505050565b60008060007f000000000000000000000000000000000000000000000000000000000000000073ffffffffffffffffffffffffffffffffffffffff1663d06ca61f86886040518363ffffffff1660e01b815260040161205c9291906136b3565b600060405180830381865afa158015612079573d6000803e3d6000fd5b505050506040513d6000823e3d601f19601f820116820180604052508101906120a2919061377a565b905060008490506000612710826127106120bc919061325d565b84600186516120cb919061325d565b815181106120dc576120db612c46565b5b60200260200101516120ee91906137c3565b6120f89190613834565b90507f000000000000000000000000000000000000000000000000000000000000000073ffffffffffffffffffffffffffffffffffffffff166338ed173988838b306104b04261214891906131d3565b6040518663ffffffff1660e01b8152600401612168959493929190613865565b6000604051808303816000875af19250505080156121a957506040513d6000823e3d601f19601f820116820180604052508101906121a6919061377a565b60015b6121e8576040517f08c379a00000000000000000000000000000000000000000000000000000000081526004016121df9061390b565b60405180910390fd5b80600182516121f7919061325d565b8151811061220857612207612c46565b5b6020026020010151945050839450505050509392505050565b6000808473ffffffffffffffffffffffffffffffffffffffff1663a9059cbb60e01b8585604051602401612256929190613207565b604051602081830303815290604052907bffffffffffffffffffffffffffffffffffffffffffffffffffffffff19166020820180517bffffffffffffffffffffffffffffffffffffffffffffffffffffffff83818316178352505050506040516122c0919061351f565b6000604051808303816000865af19150503d80600081146122fd576040519150601f19603f3d011682016040523d82523d6000602084013e612302565b606091505b5091509150818015612330575060008151148061232f57508080602001905181019061232e9190613536565b5b5b61236f576040517f08c379a000000000000000000000000000000000000000000000000000000000815260040161236690613977565b60405180910390fd5b5050505050565b61237e610380565b6123bd576040517f08c379a00000000000000000000000000000000000000000000000000000000081526004016123b4906139e3565b60405180910390fd5b565b600033905090565b600073ffffffffffffffffffffffffffffffffffffffff82169050919050565b6000819050919050565b600061240c612407612402846123c7565b6123e7565b6123c7565b9050919050565b600061241e826123f1565b9050919050565b600061243082612413565b9050919050565b61244081612425565b82525050565b600060208201905061245b6000830184612437565b92915050565b6000604051905090565b600080fd5b600080fd5b6000612480826123c7565b9050919050565b61249081612475565b811461249b57600080fd5b50565b6000813590506124ad81612487565b92915050565b6000602082840312156124c9576124c861246b565b5b60006124d78482850161249e565b91505092915050565b60008115159050919050565b6124f5816124e0565b82525050565b600060208201905061251060008301846124ec565b92915050565b6000819050919050565b61252981612516565b82525050565b60006020820190506125446000830184612520565b92915050565b612553816124e0565b811461255e57600080fd5b50565b6000813590506125708161254a565b92915050565b61257f81612516565b811461258a57600080fd5b50565b60008135905061259c81612576565b92915050565b600080600080600080600060e0888a0312156125c1576125c061246b565b5b60006125cf8a828b01612561565b97505060206125e08a828b0161249e565b96505060406125f18a828b0161249e565b95505060606126028a828b0161249e565b94505060806126138a828b0161258d565b93505060a06126248a828b0161258d565b92505060c06126358a828b0161258d565b91505092959891949750929550565b61264d81612475565b82525050565b60006020820190506126686000830184612644565b92915050565b600080fd5b6000601f19601f8301169050919050565b7f4e487b7100000000000000000000000000000000000000000000000000000000600052604160045260246000fd5b6126bc82612673565b810181811067ffffffffffffffff821117156126db576126da612684565b5b80604052505050565b60006126ee612461565b90506126fa82826126b3565b919050565b600067ffffffffffffffff82111561271a57612719612684565b5b602082029050602081019050919050565b600080fd5b600061273b82612475565b9050919050565b61274b81612730565b811461275657600080fd5b50565b60008135905061276881612742565b92915050565b600061278161277c846126ff565b6126e4565b905080838252602082019050602084028301858111156127a4576127a361272b565b5b835b818110156127cd57806127b98882612759565b8452602084019350506020810190506127a6565b5050509392505050565b600082601f8301126127ec576127eb61266e565b5b81356127fc84826020860161276e565b91505092915050565b600067ffffffffffffffff8211156128205761281f612684565b5b602082029050602081019050919050565b600061284461283f84612805565b6126e4565b905080838252602082019050602084028301858111156128675761286661272b565b5b835b81811015612890578061287c888261258d565b845260208401935050602081019050612869565b5050509392505050565b600082601f8301126128af576128ae61266e565b5b81356128bf848260208601612831565b91505092915050565b600080fd5b600067ffffffffffffffff8211156128e8576128e7612684565b5b6128f182612673565b9050602081019050919050565b82818337600083830152505050565b600061292061291b846128cd565b6126e4565b90508281526020810184848401111561293c5761293b6128c8565b5b6129478482856128fe565b509392505050565b600082601f8301126129645761296361266e565b5b813561297484826020860161290d565b91505092915050565b600080600080608085870312156129975761299661246b565b5b600085013567ffffffffffffffff8111156129b5576129b4612470565b5b6129c1878288016127d7565b945050602085013567ffffffffffffffff8111156129e2576129e1612470565b5b6129ee8782880161289a565b935050604085013567ffffffffffffffff811115612a0f57612a0e612470565b5b612a1b8782880161289a565b925050606085013567ffffffffffffffff811115612a3c57612a3b612470565b5b612a488782880161294f565b91505092959194509250565b6000612a5f82612413565b9050919050565b612a6f81612a54565b82525050565b6000602082019050612a8a6000830184612a66565b92915050565b600082825260208201905092915050565b7f4e6f7420617574686f72697a6564000000000000000000000000000000000000600082015250565b6000612ad7600e83612a90565b9150612ae282612aa1565b602082019050919050565b60006020820190508181036000830152612b0681612aca565b9050919050565b7f496e76616c6964207661756c7400000000000000000000000000000000000000600082015250565b6000612b43600d83612a90565b9150612b4e82612b0d565b602082019050919050565b60006020820190508181036000830152612b7281612b36565b9050919050565b7f5374617274207472616465000000000000000000000000000000000000000000600082015250565b6000612baf600b83612a90565b9150612bba82612b79565b602082019050919050565b60006020820190508181036000830152612bde81612ba2565b9050919050565b600060c082019050612bfa60008301896124ec565b612c076020830188612644565b612c146040830187612644565b612c216060830186612644565b612c2e6080830185612520565b612c3b60a0830184612520565b979650505050505050565b7f4e487b7100000000000000000000000000000000000000000000000000000000600052603260045260246000fd5b6000612c8082612413565b9050919050565b612c9081612c75565b82525050565b600081519050919050565b600082825260208201905092915050565b6000819050602082019050919050565b6000612ccd82612413565b9050919050565b612cdd81612cc2565b82525050565b6000612cef8383612cd4565b60208301905092915050565b6000602082019050919050565b6000612d1382612c96565b612d1d8185612ca1565b9350612d2883612cb2565b8060005b83811015612d59578151612d408882612ce3565b9750612d4b83612cfb565b925050600181019050612d2c565b5085935050505092915050565b600081519050919050565b600082825260208201905092915050565b6000819050602082019050919050565b612d9b81612516565b82525050565b6000612dad8383612d92565b60208301905092915050565b6000602082019050919050565b6000612dd182612d66565b612ddb8185612d71565b9350612de683612d82565b8060005b83811015612e17578151612dfe8882612da1565b9750612e0983612db9565b925050600181019050612dea565b5085935050505092915050565b600081519050919050565b600082825260208201905092915050565b60005b83811015612e5e578082015181840152602081019050612e43565b60008484015250505050565b6000612e7582612e24565b612e7f8185612e2f565b9350612e8f818560208601612e40565b612e9881612673565b840191505092915050565b6000608082019050612eb86000830187612c87565b8181036020830152612eca8186612d08565b90508181036040830152612ede8185612dc6565b90508181036060830152612ef28184612e6a565b905095945050505050565b7f5472616465206578656375746564207375636365737366756c6c790000000000600082015250565b6000612f33601b83612a90565b9150612f3e82612efd565b602082019050919050565b60006020820190508181036000830152612f6281612f26565b9050919050565b7f556e617574686f72697a656420666c617368206c6f616e2070726f7669646572600082015250565b6000612f9f602083612a90565b9150612faa82612f69565b602082019050919050565b60006020820190508181036000830152612fce81612f92565b9050919050565b7f4d617820666c617368206c6f616e20657865637574696f6e732072656163686560008201527f6400000000000000000000000000000000000000000000000000000000000000602082015250565b6000613031602183612a90565b915061303c82612fd5565b604082019050919050565b6000602082019050818103600083015261306081613024565b9050919050565b7f4e487b7100000000000000000000000000000000000000000000000000000000600052601160045260246000fd5b60006130a182612516565b91507fffffffffffffffffffffffffffffffffffffffffffffffffffffffffffffffff82036130d3576130d2613067565b5b600182019050919050565b6000815190506130ed8161254a565b92915050565b60006130fe826123c7565b9050919050565b61310e816130f3565b811461311957600080fd5b50565b60008151905061312b81613105565b92915050565b60008151905061314081612576565b92915050565b60008060008060008060c087890312156131635761316261246b565b5b600061317189828a016130de565b965050602061318289828a0161311c565b955050604061319389828a0161311c565b94505060606131a489828a0161311c565b93505060806131b589828a01613131565b92505060a06131c689828a01613131565b9150509295509295509295565b60006131de82612516565b91506131e983612516565b925082820190508082111561320157613200613067565b5b92915050565b600060408201905061321c6000830185612644565b6132296020830184612520565b9392505050565b6000602082840312156132465761324561246b565b5b600061325484828501613131565b91505092915050565b600061326882612516565b915061327383612516565b925082820390508181111561328b5761328a613067565b5b92915050565b60006080820190506132a66000830187612644565b6132b36020830186612644565b6132c06040830185612520565b6132cd6060830184612520565b95945050505050565b60006060820190506132eb6000830186612644565b6132f86020830185612520565b6133056040830184612520565b949350505050565b7f4e6f7420656e6f75676820746f207265706179206c6f616e0000000000000000600082015250565b6000613343601883612a90565b915061334e8261330d565b602082019050919050565b6000602082019050818103600083015261337281613336565b9050919050565b7f50726f6669742062656c6f77207468726573686f6c6420286761732070726f7460008201527f656374696f6e2900000000000000000000000000000000000000000000000000602082015250565b60006133d5602783612a90565b91506133e082613379565b604082019050919050565b60006020820190508181036000830152613404816133c8565b9050919050565b7f5265656e7472616e637947756172643a207265656e7472616e742063616c6c00600082015250565b6000613441601f83612a90565b915061344c8261340b565b602082019050919050565b6000602082019050818103600083015261347081613434565b9050919050565b7f5061757361626c653a2070617573656400000000000000000000000000000000600082015250565b60006134ad601083612a90565b91506134b882613477565b602082019050919050565b600060208201905081810360008301526134dc816134a0565b9050919050565b600081905092915050565b60006134f982612e24565b61350381856134e3565b9350613513818560208601612e40565b80840191505092915050565b600061352b82846134ee565b915081905092915050565b60006020828403121561354c5761354b61246b565b5b600061355a848285016130de565b91505092915050565b7f417070726f7665206661696c6564000000000000000000000000000000000000600082015250565b6000613599600e83612a90565b91506135a482613563565b602082019050919050565b600060208201905081810360008301526135c88161358c565b9050919050565b60006060820190506135e46000830186612644565b6135f16020830185612644565b6135fe6040830184612520565b949350505050565b600081519050919050565b6000819050602082019050919050565b61362a81612475565b82525050565b600061363c8383613621565b60208301905092915050565b6000602082019050919050565b600061366082613606565b61366a8185612ca1565b935061367583613611565b8060005b838110156136a657815161368d8882613630565b975061369883613648565b925050600181019050613679565b5085935050505092915050565b60006040820190506136c86000830185612520565b81810360208301526136da8184613655565b90509392505050565b60006136f66136f184612805565b6126e4565b905080838252602082019050602084028301858111156137195761371861272b565b5b835b81811015613742578061372e8882613131565b84526020840193505060208101905061371b565b5050509392505050565b600082601f8301126137615761376061266e565b5b81516137718482602086016136e3565b91505092915050565b6000602082840312156137905761378f61246b565b5b600082015167ffffffffffffffff8111156137ae576137ad612470565b5b6137ba8482850161374c565b91505092915050565b60006137ce82612516565b91506137d983612516565b92508282026137e781612516565b915082820484148315176137fe576137fd613067565b5b5092915050565b7f4e487b7100000000000000000000000000000000000000000000000000000000600052601260045260246000fd5b600061383f82612516565b915061384a83612516565b92508261385a57613859613805565b5b828204905092915050565b600060a08201905061387a6000830188612520565b6138876020830187612520565b81810360408301526138998186613655565b90506138a86060830185612644565b6138b56080830184612520565b9695505050505050565b7f53776170206661696c6564000000000000000000000000000000000000000000600082015250565b60006138f5600b83612a90565b9150613900826138bf565b602082019050919050565b60006020820190508181036000830152613924816138e8565b9050919050565b7f5472616e73666572206661696c65640000000000000000000000000000000000600082015250565b6000613961600f83612a90565b915061396c8261392b565b602082019050919050565b6000602082019050818103600083015261399081613954565b9050919050565b7f5061757361626c653a206e6f7420706175736564000000000000000000000000600082015250565b60006139cd601483612a90565b91506139d882613997565b602082019050919050565b600060208201905081810360008301526139fc816139c0565b905091905056fea2646970667358221220a0664bfc338c0c6a8e36f7f10c331dced1b9ca0039a69d46a7a6d5635a16cd4764736f6c63430008120033",
  "linkReferences": {},
  "deployedLinkReferences": {}
}